{
  "_format": "hh-sol-artifact-1",
  "contractName": "EarthClickGame",
  "sourceName": "contracts/EARTH.sol",
  "abi": [
    {
      "inputs": [],
      "stateMutability": "nonpayable",
      "type": "constructor"
    },
    {
      "inputs": [
        {
          "internalType": "address",
          "name": "spender",
          "type": "address"
        },
        {
          "internalType": "uint256",
          "name": "allowance",
          "type": "uint256"
        },
        {
          "internalType": "uint256",
          "name": "needed",
          "type": "uint256"
        }
      ],
      "name": "ERC20InsufficientAllowance",
      "type": "error"
    },
    {
      "inputs": [
        {
          "internalType": "address",
          "name": "sender",
          "type": "address"
        },
        {
          "internalType": "uint256",
          "name": "balance",
          "type": "uint256"
        },
        {
          "internalType": "uint256",
          "name": "needed",
          "type": "uint256"
        }
      ],
      "name": "ERC20InsufficientBalance",
      "type": "error"
    },
    {
      "inputs": [
        {
          "internalType": "address",
          "name": "approver",
          "type": "address"
        }
      ],
      "name": "ERC20InvalidApprover",
      "type": "error"
    },
    {
      "inputs": [
        {
          "internalType": "address",
          "name": "receiver",
          "type": "address"
        }
      ],
      "name": "ERC20InvalidReceiver",
      "type": "error"
    },
    {
      "inputs": [
        {
          "internalType": "address",
          "name": "sender",
          "type": "address"
        }
      ],
      "name": "ERC20InvalidSender",
      "type": "error"
    },
    {
      "inputs": [
        {
          "internalType": "address",
          "name": "spender",
          "type": "address"
        }
      ],
      "name": "ERC20InvalidSpender",
      "type": "error"
    },
    {
      "inputs": [
        {
          "internalType": "address",
          "name": "owner",
          "type": "address"
        }
      ],
      "name": "OwnableInvalidOwner",
      "type": "error"
    },
    {
      "inputs": [
        {
          "internalType": "address",
          "name": "account",
          "type": "address"
        }
      ],
      "name": "OwnableUnauthorizedAccount",
      "type": "error"
    },
    {
      "anonymous": false,
      "inputs": [
        {
          "indexed": true,
          "internalType": "address",
          "name": "owner",
          "type": "address"
        },
        {
          "indexed": true,
          "internalType": "address",
          "name": "spender",
          "type": "address"
        },
        {
          "indexed": false,
          "internalType": "uint256",
          "name": "value",
          "type": "uint256"
        }
      ],
      "name": "Approval",
      "type": "event"
    },
    {
      "anonymous": false,
      "inputs": [
        {
          "indexed": true,
          "internalType": "address",
          "name": "owner",
          "type": "address"
        },
        {
          "indexed": false,
          "internalType": "uint256",
          "name": "amount",
          "type": "uint256"
        }
      ],
      "name": "FundsWithdrawn",
      "type": "event"
    },
    {
      "anonymous": false,
      "inputs": [
        {
          "indexed": true,
          "internalType": "address",
          "name": "previousOwner",
          "type": "address"
        },
        {
          "indexed": true,
          "internalType": "address",
          "name": "newOwner",
          "type": "address"
        }
      ],
      "name": "OwnershipTransferred",
      "type": "event"
    },
    {
      "anonymous": false,
      "inputs": [
        {
          "indexed": true,
          "internalType": "address",
          "name": "user",
          "type": "address"
        },
        {
          "indexed": false,
          "internalType": "uint256",
          "name": "points",
          "type": "uint256"
        },
        {
          "indexed": false,
          "internalType": "string",
          "name": "country",
          "type": "string"
        }
      ],
      "name": "PointsSubmitted",
      "type": "event"
    },
    {
      "anonymous": false,
      "inputs": [
        {
          "indexed": true,
          "internalType": "address",
          "name": "from",
          "type": "address"
        },
        {
          "indexed": true,
          "internalType": "address",
          "name": "to",
          "type": "address"
        },
        {
          "indexed": false,
          "internalType": "uint256",
          "name": "value",
          "type": "uint256"
        }
      ],
      "name": "Transfer",
      "type": "event"
    },
    {
      "anonymous": false,
      "inputs": [
        {
          "indexed": true,
          "internalType": "address",
          "name": "user",
          "type": "address"
        },
        {
          "indexed": false,
          "internalType": "string",
          "name": "username",
          "type": "string"
        },
        {
          "indexed": false,
          "internalType": "string",
          "name": "country",
          "type": "string"
        }
      ],
      "name": "UserRegistered",
      "type": "event"
    },
    {
      "inputs": [],
      "name": "POINTS_PER_CLICK",
      "outputs": [
        {
          "internalType": "uint256",
          "name": "",
          "type": "uint256"
        }
      ],
      "stateMutability": "view",
      "type": "function"
    },
    {
      "inputs": [],
      "name": "SUBMIT_FEE",
      "outputs": [
        {
          "internalType": "uint256",
          "name": "",
          "type": "uint256"
        }
      ],
      "stateMutability": "view",
      "type": "function"
    },
    {
      "inputs": [
        {
          "internalType": "uint256",
          "name": "",
          "type": "uint256"
        }
      ],
      "name": "allCountries",
      "outputs": [
        {
          "internalType": "string",
          "name": "",
          "type": "string"
        }
      ],
      "stateMutability": "view",
      "type": "function"
    },
    {
      "inputs": [
        {
          "internalType": "uint256",
          "name": "",
          "type": "uint256"
        }
      ],
      "name": "allUsers",
      "outputs": [
        {
          "internalType": "address",
          "name": "",
          "type": "address"
        }
      ],
      "stateMutability": "view",
      "type": "function"
    },
    {
      "inputs": [
        {
          "internalType": "address",
          "name": "owner",
          "type": "address"
        },
        {
          "internalType": "address",
          "name": "spender",
          "type": "address"
        }
      ],
      "name": "allowance",
      "outputs": [
        {
          "internalType": "uint256",
          "name": "",
          "type": "uint256"
        }
      ],
      "stateMutability": "view",
      "type": "function"
    },
    {
      "inputs": [
        {
          "internalType": "address",
          "name": "spender",
          "type": "address"
        },
        {
          "internalType": "uint256",
          "name": "value",
          "type": "uint256"
        }
      ],
      "name": "approve",
      "outputs": [
        {
          "internalType": "bool",
          "name": "",
          "type": "bool"
        }
      ],
      "stateMutability": "nonpayable",
      "type": "function"
    },
    {
      "inputs": [
        {
          "internalType": "address",
          "name": "account",
          "type": "address"
        }
      ],
      "name": "balanceOf",
      "outputs": [
        {
          "internalType": "uint256",
          "name": "",
          "type": "uint256"
        }
      ],
      "stateMutability": "view",
      "type": "function"
    },
    {
      "inputs": [
        {
          "internalType": "string",
          "name": "",
          "type": "string"
        }
      ],
      "name": "countries",
      "outputs": [
        {
          "internalType": "string",
          "name": "name",
          "type": "string"
        },
        {
          "internalType": "uint256",
          "name": "totalPoints",
          "type": "uint256"
        },
        {
          "internalType": "uint256",
          "name": "totalPlayers",
          "type": "uint256"
        }
      ],
      "stateMutability": "view",
      "type": "function"
    },
    {
      "inputs": [],
      "name": "decimals",
      "outputs": [
        {
          "internalType": "uint8",
          "name": "",
          "type": "uint8"
        }
      ],
      "stateMutability": "view",
      "type": "function"
    },
    {
      "inputs": [],
      "name": "getAllCountries",
      "outputs": [
        {
          "internalType": "string[]",
          "name": "countryNames",
          "type": "string[]"
        },
        {
          "internalType": "uint256[]",
          "name": "countryPoints",
          "type": "uint256[]"
        },
        {
          "internalType": "uint256[]",
          "name": "countryPlayers",
          "type": "uint256[]"
        }
      ],
      "stateMutability": "view",
      "type": "function"
    },
    {
      "inputs": [],
      "name": "getContractBalance",
      "outputs": [
        {
          "internalType": "uint256",
          "name": "",
          "type": "uint256"
        }
      ],
      "stateMutability": "view",
      "type": "function"
    },
    {
      "inputs": [
        {
          "internalType": "uint256",
          "name": "limit",
          "type": "uint256"
        }
      ],
      "name": "getCountryLeaderboard",
      "outputs": [
        {
          "internalType": "string[]",
          "name": "countryNames",
          "type": "string[]"
        },
        {
          "internalType": "uint256[]",
          "name": "countryPoints",
          "type": "uint256[]"
        }
      ],
      "stateMutability": "view",
      "type": "function"
    },
    {
      "inputs": [
        {
          "internalType": "string",
          "name": "country",
          "type": "string"
        },
        {
          "internalType": "uint256",
          "name": "limit",
          "type": "uint256"
        }
      ],
      "name": "getTopPlayersInCountry",
      "outputs": [
        {
          "internalType": "address[]",
          "name": "playerAddresses",
          "type": "address[]"
        },
        {
          "internalType": "string[]",
          "name": "usernames",
          "type": "string[]"
        },
        {
          "internalType": "uint256[]",
          "name": "playerPoints",
          "type": "uint256[]"
        }
      ],
      "stateMutability": "view",
      "type": "function"
    },
    {
      "inputs": [
        {
          "internalType": "address",
          "name": "user",
          "type": "address"
        }
      ],
      "name": "getUserInfo",
      "outputs": [
        {
          "internalType": "string",
          "name": "username",
          "type": "string"
        },
        {
          "internalType": "string",
          "name": "country",
          "type": "string"
        },
        {
          "internalType": "uint256",
          "name": "totalPoints",
          "type": "uint256"
        },
        {
          "internalType": "uint256",
          "name": "pendingPointsCount",
          "type": "uint256"
        },
        {
          "internalType": "uint256",
          "name": "lastSubmitTimestamp",
          "type": "uint256"
        }
      ],
      "stateMutability": "view",
      "type": "function"
    },
    {
      "inputs": [],
      "name": "name",
      "outputs": [
        {
          "internalType": "string",
          "name": "",
          "type": "string"
        }
      ],
      "stateMutability": "view",
      "type": "function"
    },
    {
      "inputs": [],
      "name": "owner",
      "outputs": [
        {
          "internalType": "address",
          "name": "",
          "type": "address"
        }
      ],
      "stateMutability": "view",
      "type": "function"
    },
    {
      "inputs": [
        {
          "internalType": "address",
          "name": "",
          "type": "address"
        }
      ],
      "name": "pendingPoints",
      "outputs": [
        {
          "internalType": "uint256",
          "name": "",
          "type": "uint256"
        }
      ],
      "stateMutability": "view",
      "type": "function"
    },
    {
      "inputs": [
        {
          "internalType": "string",
          "name": "username",
          "type": "string"
        },
        {
          "internalType": "string",
          "name": "country",
          "type": "string"
        }
      ],
      "name": "register",
      "outputs": [],
      "stateMutability": "nonpayable",
      "type": "function"
    },
    {
      "inputs": [],
      "name": "renounceOwnership",
      "outputs": [],
      "stateMutability": "nonpayable",
      "type": "function"
    },
    {
      "inputs": [
        {
          "internalType": "address",
          "name": "user",
          "type": "address"
        },
        {
          "internalType": "uint256",
          "name": "points",
          "type": "uint256"
        }
      ],
      "name": "setPendingPoints",
      "outputs": [],
      "stateMutability": "nonpayable",
      "type": "function"
    },
    {
      "inputs": [
        {
          "internalType": "uint256",
          "name": "points",
          "type": "uint256"
        }
      ],
      "name": "submitPoints",
      "outputs": [],
      "stateMutability": "payable",
      "type": "function"
    },
    {
      "inputs": [],
      "name": "symbol",
      "outputs": [
        {
          "internalType": "string",
          "name": "",
          "type": "string"
        }
      ],
      "stateMutability": "view",
      "type": "function"
    },
    {
      "inputs": [],
      "name": "totalSupply",
      "outputs": [
        {
          "internalType": "uint256",
          "name": "",
          "type": "uint256"
        }
      ],
      "stateMutability": "view",
      "type": "function"
    },
    {
      "inputs": [
        {
          "internalType": "address",
          "name": "to",
          "type": "address"
        },
        {
          "internalType": "uint256",
          "name": "value",
          "type": "uint256"
        }
      ],
      "name": "transfer",
      "outputs": [
        {
          "internalType": "bool",
          "name": "",
          "type": "bool"
        }
      ],
      "stateMutability": "nonpayable",
      "type": "function"
    },
    {
      "inputs": [
        {
          "internalType": "address",
          "name": "from",
          "type": "address"
        },
        {
          "internalType": "address",
          "name": "to",
          "type": "address"
        },
        {
          "internalType": "uint256",
          "name": "value",
          "type": "uint256"
        }
      ],
      "name": "transferFrom",
      "outputs": [
        {
          "internalType": "bool",
          "name": "",
          "type": "bool"
        }
      ],
      "stateMutability": "nonpayable",
      "type": "function"
    },
    {
      "inputs": [
        {
          "internalType": "address",
          "name": "newOwner",
          "type": "address"
        }
      ],
      "name": "transferOwnership",
      "outputs": [],
      "stateMutability": "nonpayable",
      "type": "function"
    },
    {
      "inputs": [
        {
          "internalType": "address",
          "name": "",
          "type": "address"
        }
      ],
      "name": "users",
      "outputs": [
        {
          "internalType": "string",
          "name": "username",
          "type": "string"
        },
        {
          "internalType": "string",
          "name": "country",
          "type": "string"
        },
        {
          "internalType": "uint256",
          "name": "totalPoints",
          "type": "uint256"
        },
        {
          "internalType": "uint256",
          "name": "lastSubmitTimestamp",
          "type": "uint256"
        },
        {
          "internalType": "bool",
          "name": "registered",
          "type": "bool"
        }
      ],
      "stateMutability": "view",
      "type": "function"
    },
    {
      "inputs": [],
      "name": "withdrawFunds",
      "outputs": [],
      "stateMutability": "nonpayable",
      "type": "function"
    }
  ],
  "bytecode": "0x60806040523480156200001157600080fd5b5060408051808201825260058082526408a82a4a8960db1b60208084018290528451808601909552918452908301529033806200006857604051631e4fbdf760e01b81526000600482015260240160405180910390fd5b62000073816200009a565b5060046200008283826200018f565b5060056200009182826200018f565b5050506200025b565b600080546001600160a01b038381166001600160a01b0319831681178455604051919092169283917f8be0079c531659141344cd1fd0a4f28419497f9722a3daafe3b4186f6b6457e09190a35050565b634e487b7160e01b600052604160045260246000fd5b600181811c908216806200011557607f821691505b6020821081036200013657634e487b7160e01b600052602260045260246000fd5b50919050565b601f8211156200018a57600081815260208120601f850160051c81016020861015620001655750805b601f850160051c820191505b81811015620001865782815560010162000171565b5050505b505050565b81516001600160401b03811115620001ab57620001ab620000ea565b620001c381620001bc845462000100565b846200013c565b602080601f831160018114620001fb5760008415620001e25750858301515b600019600386901b1c1916600185901b17855562000186565b600085815260208120601f198616915b828110156200022c578886015182559484019460019091019084016200020b565b50858210156200024b5787850151600019600388901b60f8161c191681555b5050505050600190811b01905550565b612867806200026b6000396000f3fe6080604052600436106101b75760003560e01c80636f9fb98a116100ec578063a87430ba1161008a578063caf6e32511610064578063caf6e32514610518578063dd62ed3e14610547578063ed09c9021461058d578063f2fde38b146105ad57600080fd5b8063a87430ba1461049a578063a9059cbb146104cb578063c4950aab146104eb57600080fd5b8063825fc07b116100c6578063825fc07b146103fc5780638da5cb5b1461043357806395d89b4114610465578063a2bdedf41461047a57600080fd5b80636f9fb98a1461039e57806370a08231146103b1578063715018a6146103e757600080fd5b806324600fc3116101595780633bb45586116101335780633bb455861461031d5780633ffbd47f146103385780636386c1c7146103585780636dfdced01461038957600080fd5b806324600fc3146102be5780633126093e146102d3578063313ce5671461030157600080fd5b80630d4bf50d116101955780630d4bf50d1461022c578063172ff9061461025057806318160ddd1461027f57806323b872dd1461029e57600080fd5b806305355dba146101bc57806306fdde03146101d1578063095ea7b3146101fc575b600080fd5b6101cf6101ca36600461209b565b6105cd565b005b3480156101dd57600080fd5b506101e6610876565b6040516101f39190612104565b60405180910390f35b34801561020857600080fd5b5061021c61021736600461213a565b610908565b60405190151581526020016101f3565b34801561023857600080fd5b50610241610922565b6040516101f3939291906121f7565b34801561025c57600080fd5b5061027061026b3660046122dc565b610ba0565b6040516101f393929190612318565b34801561028b57600080fd5b506003545b6040519081526020016101f3565b3480156102aa57600080fd5b5061021c6102b936600461233d565b610c55565b3480156102ca57600080fd5b506101cf610c79565b3480156102df57600080fd5b506102f36102ee36600461209b565b610d51565b6040516101f3929190612379565b34801561030d57600080fd5b50604051601281526020016101f3565b34801561032957600080fd5b5061029066ec9c58de0a800081565b34801561034457600080fd5b506101cf6103533660046123a7565b610ff7565b34801561036457600080fd5b5061037861037336600461240a565b6112a8565b6040516101f3959493929190612425565b34801561039557600080fd5b50610290600181565b3480156103aa57600080fd5b5047610290565b3480156103bd57600080fd5b506102906103cc36600461240a565b6001600160a01b031660009081526001602052604090205490565b3480156103f357600080fd5b506101cf61146d565b34801561040857600080fd5b506101cf61041736600461213a565b6001600160a01b03909116600090815260086020526040902055565b34801561043f57600080fd5b506000546001600160a01b03165b6040516001600160a01b0390911681526020016101f3565b34801561047157600080fd5b506101e6611481565b34801561048657600080fd5b5061044d61049536600461209b565b611490565b3480156104a657600080fd5b506104ba6104b536600461240a565b6114ba565b6040516101f3959493929190612468565b3480156104d757600080fd5b5061021c6104e636600461213a565b6115fd565b3480156104f757600080fd5b5061029061050636600461240a565b60086020526000908152604090205481565b34801561052457600080fd5b506105386105333660046124ad565b61160b565b6040516101f3939291906124f1565b34801561055357600080fd5b5061029061056236600461255c565b6001600160a01b03918216600090815260026020908152604080832093909416825291909152205490565b34801561059957600080fd5b506101e66105a836600461209b565b611c0b565b3480156105b957600080fd5b506101cf6105c836600461240a565b611cb7565b3360009081526006602052604090206004015460ff166106255760405162461bcd60e51b815260206004820152600e60248201526d139bdd081c9959da5cdd195c995960921b60448201526064015b60405180910390fd5b66ec9c58de0a800034101561066f5760405162461bcd60e51b815260206004820152601060248201526f496e73756666696369656e742066656560801b604482015260640161061c565b600081116106b55760405162461bcd60e51b8152602060048201526013602482015272139bc81c1bda5b9d1cc81d1bc81cdd589b5a5d606a1b604482015260640161061c565b33600090815260066020526040812060020180548392906106d79084906125a5565b909155505033600090815260066020526040812042600382015560010180546106ff906125b8565b80601f016020809104026020016040519081016040528092919081815260200182805461072b906125b8565b80156107785780601f1061074d57610100808354040283529160200191610778565b820191906000526020600020905b81548152906001019060200180831161075b57829003601f168201915b505050505090508160078260405161079091906125f2565b908152602001604051809103902060010160008282546107b091906125a5565b909155506107d19050336107cc84670de0b6b3a764000061260e565b611cf5565b3360009081526008602052604081205566ec9c58de0a800034111561082f57336108fc61080566ec9c58de0a800034612625565b6040518115909202916000818181858888f1935050505015801561082d573d6000803e3d6000fd5b505b336001600160a01b03167fb2a745610c5993097b36a8c701c608e4d1c58c359e5e263e9d9d544b0d5fd7c3838360405161086a929190612638565b60405180910390a25050565b606060048054610885906125b8565b80601f01602080910402602001604051908101604052809291908181526020018280546108b1906125b8565b80156108fe5780601f106108d3576101008083540402835291602001916108fe565b820191906000526020600020905b8154815290600101906020018083116108e157829003601f168201915b5050505050905090565b600033610916818585611d2f565b60019150505b92915050565b600a5460609081908190806001600160401b038111156109445761094461223a565b60405190808252806020026020018201604052801561097757816020015b60608152602001906001900390816109625790505b509350806001600160401b038111156109925761099261223a565b6040519080825280602002602001820160405280156109bb578160200160208202803683370190505b509250806001600160401b038111156109d6576109d661223a565b6040519080825280602002602001820160405280156109ff578160200160208202803683370190505b50915060005b81811015610b9957600a8181548110610a2057610a20612651565b906000526020600020018054610a35906125b8565b80601f0160208091040260200160405190810160405280929190818152602001828054610a61906125b8565b8015610aae5780601f10610a8357610100808354040283529160200191610aae565b820191906000526020600020905b815481529060010190602001808311610a9157829003601f168201915b5050505050858281518110610ac557610ac5612651565b60200260200101819052506007600a8281548110610ae557610ae5612651565b90600052602060002001604051610afc91906126da565b908152602001604051809103902060010154848281518110610b2057610b20612651565b6020026020010181815250506007600a8281548110610b4157610b41612651565b90600052602060002001604051610b5891906126da565b908152602001604051809103902060020154838281518110610b7c57610b7c612651565b602090810291909101015280610b91816126e6565b915050610a05565b5050909192565b8051602081830181018051600782529282019190930120915280548190610bc6906125b8565b80601f0160208091040260200160405190810160405280929190818152602001828054610bf2906125b8565b8015610c3f5780601f10610c1457610100808354040283529160200191610c3f565b820191906000526020600020905b815481529060010190602001808311610c2257829003601f168201915b5050505050908060010154908060020154905083565b600033610c63858285611d41565b610c6e858585611dc0565b506001949350505050565b610c81611e1f565b4780610cc65760405162461bcd60e51b81526020600482015260146024820152734e6f2066756e647320746f20776974686472617760601b604482015260640161061c565b600080546040516001600160a01b039091169183156108fc02918491818181858888f19350505050158015610cff573d6000803e3d6000fd5b506000546001600160a01b03166001600160a01b03167feaff4b37086828766ad3268786972c0cd24259d4c87a80f9d3963a3c3d999b0d82604051610d4691815260200190565b60405180910390a250565b606080600083600a8054905010610d685783610d6c565b600a545b9050806001600160401b03811115610d8657610d8661223a565b604051908082528060200260200182016040528015610db957816020015b6060815260200190600190039081610da45790505b509250806001600160401b03811115610dd457610dd461223a565b604051908082528060200260200182016040528015610dfd578160200160208202803683370190505b50915060005b81811015610ff057806000610e198260016125a5565b90505b600a54811015610ebe576007600a8381548110610e3b57610e3b612651565b90600052602060002001604051610e5291906126da565b9081526020016040518091039020600101546007600a8381548110610e7957610e79612651565b90600052602060002001604051610e9091906126da565b9081526020016040518091039020600101541115610eac578091505b80610eb6816126e6565b915050610e1c565b50600a8181548110610ed257610ed2612651565b906000526020600020018054610ee7906125b8565b80601f0160208091040260200160405190810160405280929190818152602001828054610f13906125b8565b8015610f605780601f10610f3557610100808354040283529160200191610f60565b820191906000526020600020905b815481529060010190602001808311610f4357829003601f168201915b5050505050858381518110610f7757610f77612651565b60200260200101819052506007600a8281548110610f9757610f97612651565b90600052602060002001604051610fae91906126da565b908152602001604051809103902060010154848381518110610fd257610fd2612651565b60209081029190910101525080610fe8816126e6565b915050610e03565b5050915091565b3360009081526006602052604090206004015460ff161561104f5760405162461bcd60e51b8152602060048201526012602482015271105b1c9958591e481c9959da5cdd195c995960721b604482015260640161061c565b60008251116110945760405162461bcd60e51b8152602060048201526011602482015270155cd95c9b985b59481c995c5d5a5c9959607a1b604482015260640161061c565b60008151116110d85760405162461bcd60e51b815260206004820152601060248201526f10dbdd5b9d1c9e481c995c5d5a5c995960821b604482015260640161061c565b6040805160a0810182528381526020808201849052600082840181905260608301819052600160808401523381526006909152919091208151819061111d908261274d565b5060208201516001820190611132908261274d565b506040828101516002830155606083015160038301556080909201516004909101805491151560ff19909216919091179055600980546001810182556000919091527f6e1540171b6c0c960b71a7020d9f60077f6af931a8bbf590da0223dacf75c7af0180546001600160a01b03191633179055516007906111b59083906125f2565b90815260200160405180910390206002015460000361120c57600a80546001810182556000919091527fc65a7bb8d6351c1cf70c95a316cc6a92839c986682d98bc35f958f4883f9d2a80161120a828261274d565b505b8060078260405161121d91906125f2565b90815260405190819003602001902090611237908261274d565b5060078160405161124891906125f2565b9081526040519081900360200190206002018054906000611268836126e6565b9190505550336001600160a01b03167f92822564bab8864c3a47b34e8d23fbce5c46234eb5da261f94087b995ac0f33b838360405161086a92919061280c565b60608060008060008060066000886001600160a01b03166001600160a01b031681526020019081526020016000206040518060a00160405290816000820180546112f1906125b8565b80601f016020809104026020016040519081016040528092919081815260200182805461131d906125b8565b801561136a5780601f1061133f5761010080835404028352916020019161136a565b820191906000526020600020905b81548152906001019060200180831161134d57829003601f168201915b50505050508152602001600182018054611383906125b8565b80601f01602080910402602001604051908101604052809291908181526020018280546113af906125b8565b80156113fc5780601f106113d1576101008083540402835291602001916113fc565b820191906000526020600020905b8154815290600101906020018083116113df57829003601f168201915b50505091835250506002820154602080830191909152600383015460408084019190915260049093015460ff161515606092830152835184820151858501516001600160a01b039d909d166000908152600890935293909120549390910151909a9199985091965090945092505050565b611475611e1f565b61147f6000611e4c565b565b606060058054610885906125b8565b600981815481106114a057600080fd5b6000918252602090912001546001600160a01b0316905081565b6006602052600090815260409020805481906114d5906125b8565b80601f0160208091040260200160405190810160405280929190818152602001828054611501906125b8565b801561154e5780601f106115235761010080835404028352916020019161154e565b820191906000526020600020905b81548152906001019060200180831161153157829003601f168201915b505050505090806001018054611563906125b8565b80601f016020809104026020016040519081016040528092919081815260200182805461158f906125b8565b80156115dc5780601f106115b1576101008083540402835291602001916115dc565b820191906000526020600020905b8154815290600101906020018083116115bf57829003601f168201915b50505050600283015460038401546004909401549293909290915060ff1685565b600033610916818585611dc0565b60608060606000806009805490506001600160401b038111156116305761163061223a565b604051908082528060200260200182016040528015611659578160200160208202803683370190505b506009549091506000906001600160401b0381111561167a5761167a61223a565b6040519080825280602002602001820160405280156116a3578160200160208202803683370190505b50905060005b6009548110156117f657888051906020012060066000600984815481106116d2576116d2612651565b60009182526020808320909101546001600160a01b031683528201929092526040908101909120905161170891600101906126da565b6040518091039020036117e4576009818154811061172857611728612651565b9060005260206000200160009054906101000a90046001600160a01b031683858151811061175857611758612651565b60200260200101906001600160a01b031690816001600160a01b031681525050600660006009838154811061178f5761178f612651565b60009182526020808320909101546001600160a01b0316835282019290925260400190206002015482518390869081106117cb576117cb612651565b6020908102919091010152836117e0816126e6565b9450505b806117ee816126e6565b9150506116a9565b5060005b8381101561198e57600061180f8260016125a5565b90505b8481101561197b5782828151811061182c5761182c612651565b602002602001015183828151811061184657611846612651565b6020026020010151111561196957600084838151811061186857611868612651565b60200260200101519050600084848151811061188657611886612651565b602002602001015190508583815181106118a2576118a2612651565b60200260200101518685815181106118bc576118bc612651565b60200260200101906001600160a01b031690816001600160a01b0316815250508483815181106118ee576118ee612651565b602002602001015185858151811061190857611908612651565b6020026020010181815250508186848151811061192757611927612651565b60200260200101906001600160a01b031690816001600160a01b0316815250508085848151811061195a5761195a612651565b60200260200101818152505050505b80611973816126e6565b915050611812565b5080611986816126e6565b9150506117fa565b50600087841061199e57876119a0565b835b9050806001600160401b038111156119ba576119ba61223a565b6040519080825280602002602001820160405280156119e3578160200160208202803683370190505b509650806001600160401b038111156119fe576119fe61223a565b604051908082528060200260200182016040528015611a3157816020015b6060815260200190600190039081611a1c5790505b509550806001600160401b03811115611a4c57611a4c61223a565b604051908082528060200260200182016040528015611a75578160200160208202803683370190505b50945060005b81811015611bff57838181518110611a9557611a95612651565b6020026020010151888281518110611aaf57611aaf612651565b60200260200101906001600160a01b031690816001600160a01b03168152505060066000858381518110611ae557611ae5612651565b60200260200101516001600160a01b03166001600160a01b031681526020019081526020016000206000018054611b1b906125b8565b80601f0160208091040260200160405190810160405280929190818152602001828054611b47906125b8565b8015611b945780601f10611b6957610100808354040283529160200191611b94565b820191906000526020600020905b815481529060010190602001808311611b7757829003601f168201915b5050505050878281518110611bab57611bab612651565b6020026020010181905250828181518110611bc857611bc8612651565b6020026020010151868281518110611be257611be2612651565b602090810291909101015280611bf7816126e6565b915050611a7b565b50505050509250925092565b600a8181548110611c1b57600080fd5b906000526020600020016000915090508054611c36906125b8565b80601f0160208091040260200160405190810160405280929190818152602001828054611c62906125b8565b8015611caf5780601f10611c8457610100808354040283529160200191611caf565b820191906000526020600020905b815481529060010190602001808311611c9257829003601f168201915b505050505081565b611cbf611e1f565b6001600160a01b038116611ce957604051631e4fbdf760e01b81526000600482015260240161061c565b611cf281611e4c565b50565b6001600160a01b038216611d1f5760405163ec442f0560e01b81526000600482015260240161061c565b611d2b60008383611e9c565b5050565b611d3c8383836001611fc6565b505050565b6001600160a01b03838116600090815260026020908152604080832093861683529290522054600019811015611dba5781811015611dab57604051637dc7a0d960e11b81526001600160a01b0384166004820152602481018290526044810183905260640161061c565b611dba84848484036000611fc6565b50505050565b6001600160a01b038316611dea57604051634b637e8f60e11b81526000600482015260240161061c565b6001600160a01b038216611e145760405163ec442f0560e01b81526000600482015260240161061c565b611d3c838383611e9c565b6000546001600160a01b0316331461147f5760405163118cdaa760e01b815233600482015260240161061c565b600080546001600160a01b038381166001600160a01b0319831681178455604051919092169283917f8be0079c531659141344cd1fd0a4f28419497f9722a3daafe3b4186f6b6457e09190a35050565b6001600160a01b038316611ec7578060036000828254611ebc91906125a5565b90915550611f399050565b6001600160a01b03831660009081526001602052604090205481811015611f1a5760405163391434e360e21b81526001600160a01b0385166004820152602481018290526044810183905260640161061c565b6001600160a01b03841660009081526001602052604090209082900390555b6001600160a01b038216611f5557600380548290039055611f74565b6001600160a01b03821660009081526001602052604090208054820190555b816001600160a01b0316836001600160a01b03167fddf252ad1be2c89b69c2b068fc378daa952ba7f163c4a11628f55a4df523b3ef83604051611fb991815260200190565b60405180910390a3505050565b6001600160a01b038416611ff05760405163e602df0560e01b81526000600482015260240161061c565b6001600160a01b03831661201a57604051634a1406b160e11b81526000600482015260240161061c565b6001600160a01b0380851660009081526002602090815260408083209387168352929052208290558015611dba57826001600160a01b0316846001600160a01b03167f8c5be1e5ebec7d5bd14f71427d1e84f3dd0314c0f7b2291e5b200ac8c7c3b9258460405161208d91815260200190565b60405180910390a350505050565b6000602082840312156120ad57600080fd5b5035919050565b60005b838110156120cf5781810151838201526020016120b7565b50506000910152565b600081518084526120f08160208601602086016120b4565b601f01601f19169290920160200192915050565b60208152600061211760208301846120d8565b9392505050565b80356001600160a01b038116811461213557600080fd5b919050565b6000806040838503121561214d57600080fd5b6121568361211e565b946020939093013593505050565b600082825180855260208086019550808260051b84010181860160005b848110156121af57601f1986840301895261219d8383516120d8565b98840198925090830190600101612181565b5090979650505050505050565b600081518084526020808501945080840160005b838110156121ec578151875295820195908201906001016121d0565b509495945050505050565b60608152600061220a6060830186612164565b828103602084015261221c81866121bc565b9050828103604084015261223081856121bc565b9695505050505050565b634e487b7160e01b600052604160045260246000fd5b600082601f83011261226157600080fd5b81356001600160401b038082111561227b5761227b61223a565b604051601f8301601f19908116603f011681019082821181831017156122a3576122a361223a565b816040528381528660208588010111156122bc57600080fd5b836020870160208301376000602085830101528094505050505092915050565b6000602082840312156122ee57600080fd5b81356001600160401b0381111561230457600080fd5b61231084828501612250565b949350505050565b60608152600061232b60608301866120d8565b60208301949094525060400152919050565b60008060006060848603121561235257600080fd5b61235b8461211e565b92506123696020850161211e565b9150604084013590509250925092565b60408152600061238c6040830185612164565b828103602084015261239e81856121bc565b95945050505050565b600080604083850312156123ba57600080fd5b82356001600160401b03808211156123d157600080fd5b6123dd86838701612250565b935060208501359150808211156123f357600080fd5b5061240085828601612250565b9150509250929050565b60006020828403121561241c57600080fd5b6121178261211e565b60a08152600061243860a08301886120d8565b828103602084015261244a81886120d8565b60408401969096525050606081019290925260809091015292915050565b60a08152600061247b60a08301886120d8565b828103602084015261248d81886120d8565b604084019690965250506060810192909252151560809091015292915050565b600080604083850312156124c057600080fd5b82356001600160401b038111156124d657600080fd5b6124e285828601612250565b95602094909401359450505050565b606080825284519082018190526000906020906080840190828801845b828110156125335781516001600160a01b03168452928401929084019060010161250e565b505050838103828501526125478187612164565b915050828103604084015261223081856121bc565b6000806040838503121561256f57600080fd5b6125788361211e565b91506125866020840161211e565b90509250929050565b634e487b7160e01b600052601160045260246000fd5b8082018082111561091c5761091c61258f565b600181811c908216806125cc57607f821691505b6020821081036125ec57634e487b7160e01b600052602260045260246000fd5b50919050565b600082516126048184602087016120b4565b9190910192915050565b808202811582820484141761091c5761091c61258f565b8181038181111561091c5761091c61258f565b82815260406020820152600061231060408301846120d8565b634e487b7160e01b600052603260045260246000fd5b60008154612674816125b8565b6001828116801561268c57600181146126a1576126d0565b60ff19841687528215158302870194506126d0565b8560005260208060002060005b858110156126c75781548a8201529084019082016126ae565b50505082870194505b5050505092915050565b60006121178284612667565b6000600182016126f8576126f861258f565b5060010190565b601f821115611d3c57600081815260208120601f850160051c810160208610156127265750805b601f850160051c820191505b8181101561274557828155600101612732565b505050505050565b81516001600160401b038111156127665761276661223a565b61277a8161277484546125b8565b846126ff565b602080601f8311600181146127af57600084156127975750858301515b600019600386901b1c1916600185901b178555612745565b600085815260208120601f198616915b828110156127de578886015182559484019460019091019084016127bf565b50858210156127fc5787850151600019600388901b60f8161c191681555b5050505050600190811b01905550565b60408152600061281f60408301856120d8565b828103602084015261239e81856120d856fea26469706673582212208f4eab10c325c9fbca42426fdbc454531db16976cd283404c12247e95b7aca5264736f6c63430008140033",
  "linkReferences": {},
  "deployedLinkReferences": {}
}